{
  "contractName": "TaskContract",
  "abi": [
    {
      "inputs": [],
      "stateMutability": "nonpayable",
      "type": "constructor"
    },
    {
      "anonymous": false,
      "inputs": [
        {
          "indexed": false,
          "internalType": "uint256",
          "name": "id",
          "type": "uint256"
        },
        {
          "indexed": false,
          "internalType": "string",
          "name": "name",
          "type": "string"
        },
        {
          "indexed": false,
          "internalType": "string",
          "name": "description",
          "type": "string"
        },
        {
          "indexed": false,
          "internalType": "bool",
          "name": "done",
          "type": "bool"
        },
        {
          "indexed": false,
          "internalType": "uint256",
          "name": "createdAt",
          "type": "uint256"
        }
      ],
      "name": "TaskCreated",
      "type": "event"
    },
    {
      "anonymous": false,
      "inputs": [
        {
          "indexed": false,
          "internalType": "uint256",
          "name": "id",
          "type": "uint256"
        },
        {
          "indexed": false,
          "internalType": "string",
          "name": "name",
          "type": "string"
        },
        {
          "indexed": false,
          "internalType": "string",
          "name": "description",
          "type": "string"
        }
      ],
      "name": "TaskEdited",
      "type": "event"
    },
    {
      "anonymous": false,
      "inputs": [
        {
          "indexed": false,
          "internalType": "uint256",
          "name": "id",
          "type": "uint256"
        },
        {
          "indexed": false,
          "internalType": "bool",
          "name": "done",
          "type": "bool"
        }
      ],
      "name": "TaskToggleDone",
      "type": "event"
    },
    {
      "inputs": [],
      "name": "nextID",
      "outputs": [
        {
          "internalType": "uint256",
          "name": "",
          "type": "uint256"
        }
      ],
      "stateMutability": "view",
      "type": "function"
    },
    {
      "inputs": [
        {
          "internalType": "uint256",
          "name": "",
          "type": "uint256"
        }
      ],
      "name": "tasks",
      "outputs": [
        {
          "internalType": "uint256",
          "name": "id",
          "type": "uint256"
        },
        {
          "internalType": "string",
          "name": "name",
          "type": "string"
        },
        {
          "internalType": "string",
          "name": "description",
          "type": "string"
        },
        {
          "internalType": "bool",
          "name": "done",
          "type": "bool"
        },
        {
          "internalType": "uint256",
          "name": "createdAt",
          "type": "uint256"
        }
      ],
      "stateMutability": "view",
      "type": "function"
    },
    {
      "inputs": [
        {
          "internalType": "string",
          "name": "_name",
          "type": "string"
        },
        {
          "internalType": "string",
          "name": "_description",
          "type": "string"
        }
      ],
      "name": "createTask",
      "outputs": [],
      "stateMutability": "nonpayable",
      "type": "function"
    },
    {
      "inputs": [
        {
          "internalType": "uint256",
          "name": "i",
          "type": "uint256"
        }
      ],
      "name": "readTask",
      "outputs": [
        {
          "internalType": "uint256",
          "name": "",
          "type": "uint256"
        },
        {
          "internalType": "string",
          "name": "",
          "type": "string"
        },
        {
          "internalType": "string",
          "name": "",
          "type": "string"
        }
      ],
      "stateMutability": "view",
      "type": "function"
    },
    {
      "inputs": [
        {
          "internalType": "uint256",
          "name": "i",
          "type": "uint256"
        },
        {
          "internalType": "string",
          "name": "_name",
          "type": "string"
        },
        {
          "internalType": "string",
          "name": "_description",
          "type": "string"
        }
      ],
      "name": "setTask",
      "outputs": [],
      "stateMutability": "nonpayable",
      "type": "function"
    },
    {
      "inputs": [
        {
          "internalType": "uint256",
          "name": "_id",
          "type": "uint256"
        }
      ],
      "name": "toggleDone",
      "outputs": [],
      "stateMutability": "nonpayable",
      "type": "function"
    }
  ],
  "bytecode": "0x6080604052600080553480156200001557600080fd5b50620000926040518060400160405280600581526020017f66697273740000000000000000000000000000000000000000000000000000008152506040518060400160405280600481526020017f7461736b000000000000000000000000000000000000000000000000000000008152506200009860201b60201c565b62000487565b6040518060a00160405280600054815260200183815260200182815260200160001515815260200142815250600160008054815260200190815260200160002060008201518160000155602082015181600101908051906020019062000100929190620001ae565b5060408201518160020190805190602001906200011f929190620001ae565b5060608201518160030160006101000a81548160ff021916908315150217905550608082015181600401559050507f6549102bed7d1bb5ec529ee14e2ca60ffc1f47f66d4cc6ca713220613cc64c25600054838360004260405162000189959493929190620002c1565b60405180910390a1600080815480929190620001a590620003ca565b91905055505050565b828054620001bc9062000394565b90600052602060002090601f016020900481019282620001e057600085556200022c565b82601f10620001fb57805160ff19168380011785556200022c565b828001600101855582156200022c579182015b828111156200022b5782518255916020019190600101906200020e565b5b5090506200023b91906200023f565b5090565b5b808211156200025a57600081600090555060010162000240565b5090565b620002698162000348565b82525050565b60006200027c826200032c565b62000288818562000337565b93506200029a8185602086016200035e565b620002a58162000476565b840191505092915050565b620002bb8162000354565b82525050565b600060a082019050620002d86000830188620002b0565b8181036020830152620002ec81876200026f565b905081810360408301526200030281866200026f565b90506200031360608301856200025e565b620003226080830184620002b0565b9695505050505050565b600081519050919050565b600082825260208201905092915050565b60008115159050919050565b6000819050919050565b60005b838110156200037e57808201518184015260208101905062000361565b838111156200038e576000848401525b50505050565b60006002820490506001821680620003ad57607f821691505b60208210811415620003c457620003c362000447565b5b50919050565b6000620003d78262000354565b91507fffffffffffffffffffffffffffffffffffffffffffffffffffffffffffffffff8214156200040d576200040c62000418565b5b600182019050919050565b7f4e487b7100000000000000000000000000000000000000000000000000000000600052601160045260246000fd5b7f4e487b7100000000000000000000000000000000000000000000000000000000600052602260045260246000fd5b6000601f19601f8301169050919050565b610dc180620004976000396000f3fe608060405234801561001057600080fd5b50600436106100625760003560e01c80631e96917d14610067578063292a4585146100855780638d977672146100a1578063ab755faf146100d5578063d724618e14610107578063d81ef73914610123575b600080fd5b61006f61013f565b60405161007c9190610a62565b60405180910390f35b61009f600480360381019061009a91906108db565b610145565b005b6100bb60048036038101906100b69190610953565b610253565b6040516100cc959493929190610aeb565b60405180910390f35b6100ef60048036038101906100ea9190610953565b6103a6565b6040516100fe93929190610aa6565b60405180910390f35b610121600480360381019061011c9190610980565b610513565b005b61013d60048036038101906101389190610953565b6105ab565b005b60005481565b6040518060a0016040528060005481526020018381526020018281526020016000151581526020014281525060016000805481526020019081526020016000206000820151816000015560208201518160010190805190602001906101ab9291906107b3565b5060408201518160020190805190602001906101c89291906107b3565b5060608201518160030160006101000a81548160ff021916908315150217905550608082015181600401559050507f6549102bed7d1bb5ec529ee14e2ca60ffc1f47f66d4cc6ca713220613cc64c256000548383600042604051610230959493929190610aeb565b60405180910390a160008081548092919061024a90610c79565b91905055505050565b600160205280600052604060002060009150905080600001549080600101805461027c90610c16565b80601f01602080910402602001604051908101604052809291908181526020018280546102a890610c16565b80156102f55780601f106102ca576101008083540402835291602001916102f5565b820191906000526020600020905b8154815290600101906020018083116102d857829003601f168201915b50505050509080600201805461030a90610c16565b80601f016020809104026020016040519081016040528092919081815260200182805461033690610c16565b80156103835780601f1061035857610100808354040283529160200191610383565b820191906000526020600020905b81548152906001019060200180831161036657829003601f168201915b5050505050908060030160009054906101000a900460ff16908060040154905085565b6000606080600160008581526020019081526020016000206000015460016000868152602001908152602001600020600101600160008781526020019081526020016000206002018180546103fa90610c16565b80601f016020809104026020016040519081016040528092919081815260200182805461042690610c16565b80156104735780601f1061044857610100808354040283529160200191610473565b820191906000526020600020905b81548152906001019060200180831161045657829003601f168201915b5050505050915080805461048690610c16565b80601f01602080910402602001604051908101604052809291908181526020018280546104b290610c16565b80156104ff5780601f106104d4576101008083540402835291602001916104ff565b820191906000526020600020905b8154815290600101906020018083116104e257829003601f168201915b505050505090509250925092509193909250565b8160016000858152602001908152602001600020600101908051906020019061053d9291906107b3565b50806001600085815260200190815260200160002060020190805190602001906105689291906107b3565b507fd32b5541f47e247b48c73059d1ec16ad1287856bc52388064e95ba4b0b0d1317600054838360405161059e93929190610aa6565b60405180910390a1505050565b6000600160008381526020019081526020016000206040518060a0016040529081600082015481526020016001820180546105e590610c16565b80601f016020809104026020016040519081016040528092919081815260200182805461061190610c16565b801561065e5780601f106106335761010080835404028352916020019161065e565b820191906000526020600020905b81548152906001019060200180831161064157829003601f168201915b5050505050815260200160028201805461067790610c16565b80601f01602080910402602001604051908101604052809291908181526020018280546106a390610c16565b80156106f05780601f106106c5576101008083540402835291602001916106f0565b820191906000526020600020905b8154815290600101906020018083116106d357829003601f168201915b505050505081526020016003820160009054906101000a900460ff1615151515815260200160048201548152505090508060600151156001600084815260200190815260200160002060030160006101000a81548160ff0219169083151502179055507f389dee00d487dd41dd5bf0f43eeaa5b663b3af022d52368df89d388150295f45826001600085815260200190815260200160002060030160009054906101000a900460ff166040516107a7929190610a7d565b60405180910390a15050565b8280546107bf90610c16565b90600052602060002090601f0160209004810192826107e15760008555610828565b82601f106107fa57805160ff1916838001178555610828565b82800160010185558215610828579182015b8281111561082757825182559160200191906001019061080c565b5b5090506108359190610839565b5090565b5b8082111561085257600081600090555060010161083a565b5090565b600061086961086484610b71565b610b4c565b90508281526020810184848401111561088557610884610d54565b5b610890848285610bd4565b509392505050565b600082601f8301126108ad576108ac610d4f565b5b81356108bd848260208601610856565b91505092915050565b6000813590506108d581610d74565b92915050565b600080604083850312156108f2576108f1610d5e565b5b600083013567ffffffffffffffff8111156109105761090f610d59565b5b61091c85828601610898565b925050602083013567ffffffffffffffff81111561093d5761093c610d59565b5b61094985828601610898565b9150509250929050565b60006020828403121561096957610968610d5e565b5b6000610977848285016108c6565b91505092915050565b60008060006060848603121561099957610998610d5e565b5b60006109a7868287016108c6565b935050602084013567ffffffffffffffff8111156109c8576109c7610d59565b5b6109d486828701610898565b925050604084013567ffffffffffffffff8111156109f5576109f4610d59565b5b610a0186828701610898565b9150509250925092565b610a1481610bbe565b82525050565b6000610a2582610ba2565b610a2f8185610bad565b9350610a3f818560208601610be3565b610a4881610d63565b840191505092915050565b610a5c81610bca565b82525050565b6000602082019050610a776000830184610a53565b92915050565b6000604082019050610a926000830185610a53565b610a9f6020830184610a0b565b9392505050565b6000606082019050610abb6000830186610a53565b8181036020830152610acd8185610a1a565b90508181036040830152610ae18184610a1a565b9050949350505050565b600060a082019050610b006000830188610a53565b8181036020830152610b128187610a1a565b90508181036040830152610b268186610a1a565b9050610b356060830185610a0b565b610b426080830184610a53565b9695505050505050565b6000610b56610b67565b9050610b628282610c48565b919050565b6000604051905090565b600067ffffffffffffffff821115610b8c57610b8b610d20565b5b610b9582610d63565b9050602081019050919050565b600081519050919050565b600082825260208201905092915050565b60008115159050919050565b6000819050919050565b82818337600083830152505050565b60005b83811015610c01578082015181840152602081019050610be6565b83811115610c10576000848401525b50505050565b60006002820490506001821680610c2e57607f821691505b60208210811415610c4257610c41610cf1565b5b50919050565b610c5182610d63565b810181811067ffffffffffffffff82111715610c7057610c6f610d20565b5b80604052505050565b6000610c8482610bca565b91507fffffffffffffffffffffffffffffffffffffffffffffffffffffffffffffffff821415610cb757610cb6610cc2565b5b600182019050919050565b7f4e487b7100000000000000000000000000000000000000000000000000000000600052601160045260246000fd5b7f4e487b7100000000000000000000000000000000000000000000000000000000600052602260045260246000fd5b7f4e487b7100000000000000000000000000000000000000000000000000000000600052604160045260246000fd5b600080fd5b600080fd5b600080fd5b600080fd5b6000601f19601f8301169050919050565b610d7d81610bca565b8114610d8857600080fd5b5056fea26469706673582212205100070318abb085e93586656e020deddaa3da4ff57a6999d20305faac4f28fa64736f6c63430008060033",
  "immutableReferences": {},
  "source": "// SPDX-License-Identifier: MIT\r\npragma solidity ^0.8.6;\r\n\r\ncontract TaskContract {\r\n\r\n    // Variables\r\n    // This is for the id of each task, it gonna increase when we add a new task\r\n    uint public nextID = 0;\r\n    \r\n    // This generates the unic Task to test\r\n    constructor(){\r\n        createTask('first', 'task');\r\n    }\r\n\r\n    // Events\r\n    // Declaring an event to the create function\r\n    event TaskCreated (\r\n        uint id,\r\n        string name,\r\n        string description,\r\n        bool done,\r\n        uint createdAt\r\n    );\r\n\r\n    // Declaring an event to the set function\r\n    event TaskEdited (\r\n        uint id,\r\n        string name,\r\n        string description\r\n    );\r\n\r\n    // Just necesary these props to the done function\r\n    event TaskToggleDone (\r\n        uint id,\r\n        bool done\r\n    );\r\n\r\n    // Declaring a structure\r\n    struct Task { \r\n        uint id;\r\n        string name;\r\n        string description;\r\n        bool done;\r\n        uint createdAt;\r\n    }\r\n  \r\n    // Declaring a structure object\r\n    //Task[] tasks;\r\n    mapping (uint256 => Task) public tasks;\r\n    \r\n    // Functions from the contract\r\n    function createTask(string memory _name, string memory _description) public { \r\n        tasks[nextID] = Task(nextID, _name, _description, false, block.timestamp);\r\n        //tasks.push(Task(nextID, name, description)); \r\n        // We throw an event\r\n        emit TaskCreated(nextID, _name, _description, false, block.timestamp);\r\n        nextID++;\r\n    }\r\n\r\n    function readTask(uint i) public view returns (uint, string memory, string memory) { \r\n        return (tasks[i].id, tasks[i].name, tasks[i].description);\r\n        //return (tasks[i]); \r\n    }\r\n\r\n    // To change some of the info from a task\r\n    function setTask(uint i, string memory _name, string memory _description) public { \r\n        tasks[i].name = _name; \r\n        tasks[i].description = _description;\r\n        // We throw an event\r\n        emit TaskEdited(nextID, _name, _description);\r\n    }\r\n\r\n    // To change the value of the done prop\r\n    function toggleDone(uint _id) public { \r\n        Task memory _task = tasks[_id];\r\n        //_task.done = !_task.done;\r\n        //tasks[_id] = _task;\r\n        tasks[_id].done = !_task.done;\r\n        // We throw an event\r\n        emit TaskToggleDone(_id, tasks[_id].done);\r\n    }\r\n}",
  "sourcePath": "C:\\Users\\USER\\Documents\\Dapps\\myfirstcontract\\contracts\\TaskContract.sol",
  "compiler": {
    "name": "solc",
    "version": "0.8.6+commit.11564f7e.Emscripten.clang"
  },
  "schemaVersion": "3.4.4",
  "updatedAt": "2022-02-04T20:20:03.315Z",
  "devdoc": {
    "kind": "dev",
    "methods": {},
    "version": 1
  },
  "userdoc": {
    "kind": "user",
    "methods": {},
    "version": 1
  }
}